:100000000C945A020C9492020C9492020C94920258
:100010000C9492020C9492020C9492020C94920210
:100020000C9492020C9492020C947C230C944F2416
:100030000C94F11D0C9492020C9492020C94920276
:100040000C9492020C9492020C9492020C949202E0
:100050000C9492020C94891E0C9492020C949202BD
:100060000C9492020C9492020C9492020C949202C0
:100070000C9492020C9492020C9492020C949202B0
:100080000C9492020C9492020C9492020C949202A0
:100090000C9492020C9492020C9492020C94920290
:1000A0000C9492020C9492020C94920229003A0051
:1000B0003B003C003D003E003F000000000000000F
:1000C0004000410042004300440045004C001B0139
:1000D00035001E001F002000210022000000460005
:1000E0000000230024002500260027002D002A0000
:1000F00006012B0014001A0008001500170000006C
:100100002E0000001C0018000C001200130031002B
:1001100028001901390004001600070009000A0030
:100120002F00000030000B000D000E000F00330008
:10013000340000000000E1001D001B000600190053
:1001400005000000520000001100100036003700CA
:100150003800E500000000000000E000E300E200DD
:1001600021522C00500051004F002C002152E6007B
:100170006500E40000000000010001000100010032
:10018000010001000100000000000000010001006A
:100190000100010001000100010001000100010057
:1001A0000100010001000100000001000000010049
:1001B0000100010001000100010001000100010037
:1001C0000100010001000100010000000100000029
:1001D0000100010001000100010001000100010017
:1001E0000100010001000100010001000100000008
:1001F00001000100010001000100010001000000F8
:1002000000000100010001000100010001000000E8
:100210004B0000000100010001000100010001008D
:1002200000000000000001000100010001000100C9
:100230004A004E004D0001000100010001000100D4
:100240000000000000000000000000002A2B280031
:100250000000000000000000000000000000002975
:10026000000000002C1E3420212224342627252EB5
:10027000362D3738271E1F202122232425263333ED
:10028000362E37381F0405060708090A0B0C0D0E19
:100290000F101112131415161718191A1B1C1D2FE5
:1002A0003130232D350405060708090A0B0C0D0E05
:1002B0000F101112131415161718191A1B1C1D2FC5
:1002C0003130354C0000000000000000000000004C
:1002D000000000000000000000000000000000001E
:1002E00000000000000000007E0F00D4FFFFFFC7E9
:1002F0000000007818037300750069006B0061004E
:10030000380035006500720067006F0000001603BA
:100310007300750069006B006100670069006B0085
:1003200065006E0000000403090409025B0003017C
:1003300000A0FA09040000010301010009211101D4
:10034000000122440007058103080001090401009F
:10035000020300000009211101000122220007050B
:1003600082032000010705030320000109040200A5
:10037000010300000009211101000122B600070558
:1003800084032000011201000200000008484B0213
:10039000000001010200010660FF0961A10109627C
:1003A000150026FF009520750881020963150026B7
:1003B000FF00952075089102C005010902A1018581
:1003C000020901A100050919012908150025019557
:1003D00008750181020501093009311581257F95D4
:1003E000027508810609381581257F9501750881F8
:1003F00006050C0A38021581257F950175088106CE
:10040000C0C005010980A101850319012AB70015A3
:100410000126B700950175108100C0050C0901A1E6
:1004200001850419012AA002150126A00295017573
:10043000108100C005010906A1018506050719E024
:1004400029E71500250195087501810205071900A6
:1004500029EF1500250195F07501810205081901A4
:100460002905950575019102950175039101C00556
:10047000010906A101050719E029E71500250195E5
:100480000875018102950175088101050719002988
:10049000FF150026FF009506750881000508190163
:1004A0002905150025019505750191029501750332
:1004B0009101C00011241FBECFEFDAE0DEBFCDBF37
:1004C00004B603FE18C080910D0390910E03A09115
:1004D0000F03B09110038730904BA740B04B59F4F5
:1004E00010920D0310920E0310920F03109210033E
:1004F000E0E0F8E3099511E0A0E0B1E0EAEBF0E517
:1005000002C005900D92A23BB107D9F723E0A2EB00
:10051000B1E001C01D92AD30B207E1F70E94CF12E9
:100520000C94F7270C9400008230B8F46630A8F4DD
:10053000413198F4E42FF0E091E1699FE00DF11D65
:10054000112496E6899FE00DF11D1124EE0FFF1F87
:10055000E455FF4F85919491089581E090E00895CE
:1005600081E008950E94B002089581E008950E94FC
:10057000B00208950E94B702089508950E94BD0236
:100580000895A6E0B0E0E7ECF2E00C942A26498357
:100590005A839E833091B90189819A8131111AC0A1
:1005A0003E81332399F0222389F00E944908182FB5
:1005B000682F89819A810E94250869817A81812F1B
:1005C0000E948B0F2696E3E00C9446260E94370883
:1005D000182FF3CF0E94490869817A81F1CFFC017D
:1005E000262F4081518162817381848195810E948F
:1005F000C1020895CF93DF93D82FC92F61E00E94E5
:10060000EF026D2F7C2F0E94B202DF91CF910895EF
:10061000CF93DF93D82FC92F60E00E94EF026D2F98
:100620007C2F0E94BE02DF91CF91089581E0089552
:100630000E9416030895CF93C82F0E9419078C2F8C
:100640000E9418032FEF84E39CE0215080409040EB
:10065000E1F700C00000CF91089581E00E941B03E4
:100660000E94AD1E089580E00E941B030E94D11ECF
:1006700008950F931F93CF93DF938C0161E00E9445
:10068000EF02EC01B8010E94A41A882309F442C0C9
:10069000B801CE010E94BA028823E1F1B801CE016F
:1006A0000E94B2198823B1F1B801CE010E94C21490
:1006B000882381F1B801CE010E949714882351F15B
:1006C000B801CE010E94F319882321F1F801858138
:1006D000882381F0CA35FCE7DF0739F178F4C130AF
:1006E000ECE7DE07F9F0C330FCE7DF07C9F0C1151E
:1006F000DC4771F0C8010E94B5020DC0CB35ECE7B4
:10070000DE07B1F0CC35DC47A9F70E94940CF2CF9C
:100710000E942D0380E0DF91CF911F910F910895EA
:100720000E94A60C0E943303F5CF0E949E0CE2CFDC
:100730000E94A20CDFCF0E94C21D0E94C203089536
:100740000E94C6030E94C71D0895089581E0089580
:100750000895CF93DF93D82F0E94A603C82F882334
:1007600019F08D2F0E94A8038C2FDF91CF9108954F
:100770000895CF93C82F0E94A5038C2F0E94A90330
:10078000CF91089580E00E94B90308950E94FE1B56
:100790000E94B9030895CF930E94FE1BC82F809139
:1007A000B4018C1779F0C093B4010E945D1E609370
:1007B000B5017093B6018093B7019093B8018C2F67
:1007C0000E94B903CF910895ADE0B0E0EAEEF3E006
:1007D0000C942B26488759876A877B878C879D874F
:1007E00091110E949F0B1F8286E0FE013896DE0168
:1007F000119601900D928A95E1F78D8181110DC0BE
:1008000029813A814B815C816D817E818F810E943B
:10081000E50A2D96E2E00C944726CE0101960E944F
:10082000FA028111EDCFF5CFFC018481813021F4F2
:10083000808191810E946B080895662329F00E94AF
:1008400030160E94061708950E948E16FACFCF9395
:10085000C82F882399F08CEF8C0F813A88F48C2F65
:100860000E94A11C882329F08C2F0E94461D0E9403
:10087000370C8C2F0E942F1D0E94370CCF910895AA
:1008800080E28C0F883048F4C77081E001C0880F87
:10089000CA95EAF70E94800BEFCF8BE58C0F83306F
:1008A00038F42C2F2452330BC9010E94341CE6CF9C
:1008B000E8E5EC0FEB3150F4F0E0EE0FFF1FE05EE7
:1008C000FE4F808191810E945A1CD8CF83E38C0F08
:1008D0008331A0F661E08C2F0E941D04CFCF8823C6
:1008E00081F19CEF980F913A28F40E94461D0E94D6
:1008F000370C089590E2980F983050F4877091E08B
:1009000001C0990F8A95EAF7892F0E94860BEFCFD5
:100910009BE5980F933028F480E090E00E94341C0F
:10092000089598E5980F9B3128F480E090E00E94AC
:100930005A1C089593E3980F933118F460E00E94D5
:100940001D0408951F93CF93DF93182FEB010E948E
:100950002704209739F4812F0E946F04DF91CF91F3
:100960001F9108958FE99FE00197F1F700C0000003
:100970002197EFCF60E070E0893311F460E570E01B
:100980000E94A2040895882321F00E94800B0E94F7
:10099000370C0895882321F00E94860B0E94370CA3
:1009A0000895A0E0B0E0E7EDF4E00C9425266C019A
:1009B000D62FC72FFC011581068102950F700E946A
:1009C000750BE82E8823F9F0E12E1123E1F08C2F2E
:1009D000807F803461F080E28D0F8830F0F08C2FC2
:1009E000807E803221F4D230C0F00023B1F08091BB
:1009F000C70282FF12C082E00E94670C0E94750B42
:100A000091E0E82EE926EC2FE295EF70C03CB0F5BE
:100A1000F0E0E750F84D0C940E26E12CF4CF0C2FAB
:100A20000F70C03110F00295007F112399F0002360
:100A300059F080E28D0F883010F0D11107C0802F5F
:100A40000E94800B0E94370C8D2F51C0802F0E9476
:100A5000910BF8CF8D2F0E946F04002379F080E274
:100A60008D0F883010F0D11104C0802F0E94860BAA
:100A700003C0802F0E94970B0E94370CEE2089F054
:100A80000E94710B80FD0DC0F60115820E946B0B58
:100A90000E949307C6010E94E0060E946B0B0E9411
:100AA0009F07CDB7DEB7E8E00C944126FC2FFF701E
:100AB000FF2EC07FC03219F0F29480EFF822DD23C0
:100AC00041F0D130D1F1112309F444C00023F1F0F9
:100AD000BBCF8091C70282FD15C0112359F0FF20C2
:100AE00029F08F2D0E94800B0E94370C80E00E941D
:100AF0002704C4CF80E00E946F04FF2009F4BECF1A
:100B00008F2DB4CF112369F0011104C08F2D0E94E5
:100B1000C304B4CF013009F0B1CF8F2D0E94B70BC1
:100B2000ADCF0111ABCF8F2D0E94CA048F2D0E9433
:100B3000C30B8F2D0E94A60BA1CF112321F00630ED
:100B400008F09CCFE3CF053008F098CF8F2D0E949E
:100B5000CA0494CF0023D1F3D93349F42FEF87EEA1
:100B600093E0215080409040E1F700C000008D2FBD
:100B70000E946F0483CF8C2F86958695837088237F
:100B800069F0813009F07ACF8D2F9C2F937011116D
:100B900002C080E090E00E945A1C70CF8D2F9C2FE5
:100BA0009370111102C080E090E00E94341C66CF67
:100BB000612F8D2F0E941D0461CF8C2F83708111B6
:100BC00034C0111124C04D2F429546954770440FF3
:100BD000440F8D2F8F70042E01C0880F0A94EAF7FE
:100BE000D071DD2341F02FE030E001C0220F4A95A3
:100BF000EAF7D22FD095C695C695C3708D2BC2301B
:100C000071F0C33079F0C13039F00E946F070E9453
:100C1000FE1B0E94B90332CF0E946907F8CF0E94E1
:100C20007507F5CF0E946607F2CF112339F1C0FF97
:100C3000EECF4D2F429546954770440F440F8D2FB0
:100C40008F70042E01C0880F0A94EAF7D071DD235B
:100C500041F02FE030E001C0220F4A95EAF7D22F91
:100C6000D095C695C695C3708D2BC23069F0C33040
:100C700071F0C13031F00E94C107C9CF823038F223
:100C8000D8CF0E94BB07C3CF0E94C707C0CF0E9426
:100C90008107BDCFCF70112339F08C2F0E949307AD
:100CA0008D2F0E94C304B3CF8D2F0E94CA048C2FB6
:100CB0000E949F07ACCFD23F31F170F4D03FB9F022
:100CC000D13FB1F1112309F451C0002309F44BC005
:100CD0008D2F0E9427049BCFD33FE1F0D43F21F119
:100CE0001111F3CF011150C08C2F8F71E1CF11235F
:100CF00041F0053008F08BCF8C2F8F710E94AF0729
:100D000086CF0530F7CF8C2F8F711111D1CF0E9474
:100D100093077DCF112329F08C2F8F710E948A07B2
:100D200076CF0E94860773CF8091C70282FD06C0EE
:100D30008C2F8F71112309F4BBCFE9CF112349F018
:100D4000CF718C2F0E94930763E08C2F0E94490C77
:100D50005ECF81E00E94670C023008F458CF82E039
:100D60000E94670C54CF8C2F8F71D1CF002309F4D0
:100D7000BBCFD93349F4EFEFF7EE23E0E150F04079
:100D80002040E1F700C000008D2F0E946F043FCF8C
:100D90000F931F93CF93DF93EC01688179818D814D
:100DA0000E9478088C010E94CD070E946507B80157
:100DB000CE010E94D104DF91CF911F910F91089530
:100DC000CF93DF93EC018C81882399F0CE010E94B0
:100DD0003903811111C00E94750B882351F08D8158
:100DE000882339F08091C70282FF03C082E00E940D
:100DF000670CDF91CF910895CE010E94C806CE0105
:100E00000E940803F6CF80E090E00E94341C80E04E
:100E100090E00E945A1C0E949F0B0E94370C0E9477
:100E200023170E94061708950E945D1D0E94030764
:100E300008950E948E0B0E9414070895282F929502
:100E40009F70963091F060F4925F9F70923030F412
:100E500081E0203F79F030F4283E30F080E00895C2
:100E60009A5FF3CF243FD1F7089581E0283EE0F365
:100E7000213FF9CF0895FC018481882339F08081D6
:100E800091810E946B080E941E07089580E00895DA
:100E9000A6E0B0E0EEE4F7E00C942B262696E2E024
:100EA0000C944726A7E0B0E0E8E5F7E00C942B2689
:100EB0002796E2E00C94472608950E945C07089567
:100EC0000E945D078093E201089508950E946007E3
:100ED00008959091E201892B0E94600708959091F6
:100EE000E20189230E94600708959091E201892719
:100EF0000E94600708950E945C0708950E947B0786
:100F000008950E947E078093E101089580E00E9489
:100F10008107089591E001C0990F8A95EAF7892F1A
:100F20000E948107089521E030E001C0220F8A95D8
:100F3000EAF78091E101822B0E948107089521E068
:100F400030E0A90102C0440F551F8A95E2F7CA019B
:100F500080959091E10189230E948107089521E005
:100F600030E001C0220F8A95EAF78091E1018227E3
:100F70000E94810708959091E101892B0E948107C9
:100F800008959091E10189230E948107089590912D
:100F9000E10189270E948107089508959B016770E8
:100FA00091E001C0990F6A95EAF763E036952795BD
:100FB0006A95E1F7B901660F771F260F371FFA010F
:100FC000E20FF31F40E050E0682F70E08191DF01F5
:100FD00011979B01042E02C0369527950A94E2F7DB
:100FE000217021952827292328272C934F5F5F4FB5
:100FF0004330510559F708959C01A82FA77083E04D
:10100000369527958A95E1F7C901880F991F820FB8
:10101000931FFB01E80FF91F40E050E080E02191B1
:1010200030E00A2E02C0369527950A94E2F7217027
:101030003327042E01C0220F0A94EAF7822B4F5F58
:101040005F4F4330510559F70895282F862F96306A
:1010500068F4213158F4622F70E021E1929F600D15
:10106000711D11244AEB51E00E94CE070895292FEB
:10107000963068F4813158F490E06AEB71E031E128
:10108000239F800D911D11240E94FC07089580E08C
:1010900008951F93CF93DF93D82FC92F1091E101AB
:1010A0008091E201182B11FD07C010FD0EC080E0F9
:1010B000DF91CF911F9108956D2F792F81E00E94CC
:1010C000970F019791F381E0F3CF6D2F7C2F80E094
:1010D0000E94970FECCFCF93DF93D82FC92F0E9498
:1010E00049086D2F7C2F0E94970FDF91CF910895B3
:1010F0001F93CF93DF93162FD72F9091B901992388
:1011000041F0862F972F0E946B08DF91CF911F919E
:101110000895882381F0862F972F0E944908C82FB1
:10112000682F812F9D2F0E942508612F7D2F8C2FE6
:101130000E94970FEACF862F972F0E943708C82F5B
:10114000F4CFE1E0F0E0DF0102C0AA0FBB1F6A9517
:10115000E2F7BD01DF0102C0AA0FBB1F4A95E2F70B
:101160006A2B01C0EE0F2A95EAF7962F9823961363
:1011700002C08E2B0895E0958E230895242F462FCC
:10118000682F8091E1010E94A1080E9481070895C3
:101190000F931F93CF93E091E301C7E08091E401A7
:1011A0008E1304C0CF911F910F9108950E2F10E060
:1011B000CE9FF0011124EB51FE4F208131814281FD
:1011C00053816481758186810E945207F8013196AE
:1011D000E770E4CF20911D0230911E0240911F0262
:1011E000509120026091210270912202809123028D
:1011F0000E945207089580912302803178F48091F3
:101200002202882359F0E091E3012091E40130911A
:101210001E0240911D0257E02E1301C008956E2F4B
:1012200070E05E9FF0011124DF01AB51BE4F1496B8
:101230008C911497882361F111968C9111978313E7
:1012400027C08C91841324C015968C911597811119
:101250001FC012968D919C91A0911F02B091200207
:101260008A1B9B0B883C910598F4809123028F7018
:10127000806180932302E551FE4F80818F708061F1
:1012800080838DE192E00E94E0060E94C8080895E4
:10129000FB013196E770C0CFE091E3019091E4014A
:1012A00027E0E91302C080E00895AE2FB0E02E9F42
:1012B000F0011124EB51FE4F3181361306C030810D
:1012C000381303C03581341304C0FD013196E77033
:1012D000E8CF81E008958F929F92AF92BF92DF9204
:1012E000EF92FF920F931F93CF93DF93CDB7DEB7AB
:1012F0002D970FB6F894DEBF0FBECDBF8C0186E0F0
:10130000F801DE01189601900D928A95E1F7F80137
:10131000E080F580A280B38084819DE1892E92E0F7
:10132000992E9091210291111BC0882309F4FCC0D1
:10133000FF2009F43DC1C8010E943B07882309F43E
:1013400037C187E0F801D40101900D928A95E1F749
:10135000C4010E9414040E94FB080E94EA08E4C031
:10136000D090220220911F0230912002A501421B41
:10137000530BDD2009F4DBC0483C510508F0A6C042
:10138000882309F4D1C090911E029180809123029C
:10139000803108F06BC0991228C090911D029E11F7
:1013A00024C0F1105DC08F708061809323020E9481
:1013B000EA088DE192E00E94E00680912302F801A4
:1013C0008683F12C8F2D2D960FB6F894DEBF0FBEBD
:1013D000CDBFDF91CF911F910F91FF90EF90DF90E4
:1013E000BF90AF909F908F900895F11039C040E06A
:1013F000692D8E2D0E944C0940E0692D8E2D0E9492
:101400004C09F82E8111DDCF888599850E946B08E3
:10141000292F22952F70903450F49F70223080F045
:10142000992399F0F8019681903178F4CBCF2A5F17
:101430002F70223078F0C8010E94E006FD2CC2CF48
:10144000992319F0882309F4BDCF805E883008F411
:10145000B9CFF1CF803F08F4B5CF815F8230F7CFAD
:1014600080912302816080932302ABCF991207C041
:1014700090911D029E1103C0FF2009F479C0C8019C
:101480000E943B07882309F493C0FF2009F490C011
:1014900080912302803288F020911D0230911E023B
:1014A0003A832983BC82AB82909121029D831E8264
:1014B0008F83CE0101960E94E00687E0F801ADE13E
:1014C000B2E001900D928A95E1F745CF9091230209
:1014D0009031A0F4488559856A857B858C859D85EA
:1014E0000E9448078DE192E00E94E00687E0F40147
:1014F00011928A95E9F70E94EA0863CF8823A1F048
:1015000020911E0281812813BACF80911D028E1175
:10151000B6CFF110B4CF9683C8010E94E00687E0F1
:10152000F40111928A95E9F7FF24F3944BCF483CDC
:10153000510508F041C08823B9F3FF20C9F190910B
:101540001E02818198132AC080911D028E1126C02F
:101550008091230280FD19C08031B8F08683807F9E
:10156000803F39F08681982F907F905F8F70892B14
:101570008683C8010E94E00687E0F801ADE1B2E091
:1015800001900D928A95E1F7E8CE87E0F801ADE190
:10159000B2E001900D928A95E1F7C6CFC8010E9492
:1015A0003B0781118ACF80912302816080932302BF
:1015B000C8010E94E006B8CF488559856A857B85B9
:1015C0008C859D850E94480791CFAEE0B0E0EBEEA0
:1015D000FAE00C942A26288739874A875B876C872C
:1015E0007D878E87CE0108960E946B098823B1F013
:1015F0006C85662341F0288539854A855B857D8524
:101600008E850E94520717E08091E3019091E401DA
:1016100089133EC02E96E3E00C94462687E0FE0137
:101620003896DE01119601900D928A95E1F720918E
:10163000E4014091E3018C85882329F330E0C9015E
:1016400001968770992750E08417950799F097E0E5
:10165000929FD001939FB00D1124AB51BE4FFE015C
:10166000319601900D929A95E1F78093E4010E94E2
:10167000C808C9CF0E9419071092E4011092E30133
:1016800087E0EDE1F2E0DF011D928A95E9F7BBCF3B
:10169000189FC00111248B519E4F0E946B09882313
:1016A00009F4B8CFE091E3011E9FF0011124EB5142
:1016B000FE4F208131814281538164817581868111
:1016C0000E9452078091E30190E00196877099276C
:1016D0008093E30199CF80914C02869586958695FB
:1016E000089580914C028770089590914C029770F4
:1016F00081E0911101C080E0089580917802089501
:1017000090917802982B909378020895982F909555
:10171000809178028923809378020895109278024C
:10172000089590917702982B909377020895982FBF
:101730009095809177028923809377020895109283
:101740007702089508950E94A20B089590914D028A
:10175000292F2823222331F08095892380934D025D
:101760000E94A30B089508950E94B30B08959091D1
:101770004E02292F2823281729F0982B90934E02E8
:101780000E94B40B089590914E02292F2823222302
:1017900031F08095892380934E020E94B40B089506
:1017A00080914E02882329F010924E0280E00E9420
:1017B000B40B0895CF93DF93C091780280917702A4
:1017C000C82BD0914E02DD2331F00E94801C811184
:1017D0000E94D00BCD2B8C2FDF91CF910895CF930A
:1017E000DF93C0910801D09109010E94DA0B888330
:1017F000C0910801D091090148E050E064E472E032
:10180000CE010E949127892B59F088E0FE01A4E4C3
:10181000B2E001900D928A95E1F7CE010E940B1C77
:10182000DF91CF910895CF93DF93C0910601D091BE
:1018300007010E94DA0B8983C0910601D09107014C
:1018400040E250E064E272E0CE010E949127892BD1
:1018500059F080E2FE01A4E2B2E001900D928A9577
:10186000E1F7CE010E94161CDF91CF91089580917F
:101870001F01882339F08091C60287FF03C00E94B0
:10188000130C08950E94EF0B089508950E94450CD3
:1018900008959091C70292FF11C098E0899F90012E
:1018A0001124622B60934C020E94930780914C029A
:1018B0008695869586950E94460C08950E9493070A
:1018C000089510924C0280E00E94460C0895909179
:1018D0004C028095892380934C02282F2770211178
:1018E0000DC0891759F09091C70292FF07C08695E5
:1018F000869586950E949F070E94610C089590919D
:10190000C70292FB222720F9281769F080FB92F981
:101910009093C7028091C6029091C7020E94C80CA2
:1019200082E00E94670C08958091C70282FB88279D
:1019300080F991E089270E947F0C089581E00E9440
:101940007F0C089580E00E947F0C08956FEF7FEF79
:1019500080E090E00E94E127089580E090E00E94FE
:10196000AD27863E9E4F19F40E942E1A089580E0FE
:10197000089582E090E00E94A527089583E090E01A
:101980000E94A527089584E090E00E94AD27089565
:10199000BC0184E090E00E94E1270895AB01BC0106
:1019A0008FE090E00E94D5270895AB01BC0183E150
:1019B00090E00E94D527089560E070E0CB010E947E
:1019C000D50C089560E070E0CB010E94CE0C0E941F
:1019D000DC0C0895A8E0B0E0E0EFFCE00C942B26CE
:1019E00066EE7EEF80E090E00E94E12760E082E01A
:1019F00090E00E94C32781E08093E20161E083E0F0
:101A000090E00E94C32760E074E184E090E00E94CF
:101A1000E12760E086E090E00E94C32760E087E075
:101A200090E00E94C32740E050E0BA0188E090E0D7
:101A30000E94D52760E084E290E00E94C32760E026
:101A400087E190E00E94C32760E08CE090E00E9474
:101A5000C32760E08DE090E00E94C32719821A82BC
:101A60001B821C821D821E821F82188648E050E065
:101A700068E170E0CE0101960E94B32740E050E09B
:101A8000BA0180E290E00E94D52780E00E94471AC8
:101A90000E94861A0E94E20C2896E2E00C944726E7
:101AA0000E94EA0C0895682F8EE090E00E94C32700
:101AB0000895A6E0B0E0EFE5FDE00C9429260E9431
:101AC000511E8C018091790290917A0280179107C2
:101AD00079F019821A820E94511EBC0149815A81F3
:101AE00080E090E00E94E40310937A020093790270
:101AF0002696E4E00C9445260E945D1E60939702B2
:101B0000709398028093990290939A026093930243
:101B1000709394028093950290939602089508958D
:101B200008950E948F0D089508950E94940D0895C0
:101B30008FE890E10E94DC120E94900D0E94910DAE
:101B4000089581E008950E94A10D08950E94A10DBD
:101B50000895089508950E94A90D0E94AA0D089560
:101B60000E94AD0C811102C00E94500D0E94B90C60
:101B700080939B020E94C30C9093C7028093C6027D
:101B80000E9400130E94BE0C0E9466078091E10132
:101B90000E947E0708950E94481E0E94961A0E9485
:101BA00075110E94B00D0E94B8030E94950D089512
:101BB000A8E0B0E0EEEDFDE00C941B260E94A30D22
:101BC00081110AC00E94590D0E9444170E94CB0344
:101BD0002896E2E10C9437260E948B118BE792E065
:101BE00098878F837C0110E0F701419051906190BC
:101BF00071907F01812F0E949910462F572FBC01B1
:101C00001F5F163009F467C044165506660677064E
:101C100059F380919B0281FD0E94AF100E94A60D96
:101C2000382E10E022242394812F0E9499106B01FA
:101C30007C01EF81F8854190519061907190F88717
:101C4000EF83C414D504E604F704F1F14C245D24B9
:101C50006E247F2400E0812C912C54018394D301C5
:101C6000C20188219921AA21BB21892B8A2B8B2B88
:101C7000E9F03320D9F009831A830E94511E9C8316
:101C80008B832D8221E0D701C60188219921AA21C9
:101C9000BB21892B8A2B8B2B09F420E049815A81A7
:101CA0006B817C818D81922F0E94E4030F5F880CF1
:101CB000991CAA1CBB1C013191F6EF81F885349761
:101CC000C082D182E282F3821F5F163009F0ACCF6E
:101CD0000E947C0D79CF441655066606770609F0FA
:101CE00098CF70CF1F93CF93DF930E949C0FEC018E
:101CF000811522E5920708F053C0811540E594074D
:101D000008F0DDC0803E9105F8F48D3C910508F0A7
:101D1000AEC0883A910580F4853A910508F099C0E3
:101D20008130910521F00497813A910550F4CE015C
:101D3000DF91CF911F910895885A91094B9708F42C
:101D40008BC0C0E0D0E0F3CF811550E49507F8F4E4
:101D5000C11580E2D80708F0CBC0C83ED10538F3E2
:101D6000CE019A9581159F4160F78D2F0E944010FA
:101D7000182FCE0199270E949C0F212F30E0322F7F
:101D80002227E901CC27DF71C82BD92BD0CF992787
:101D90000E949C0FCC27DF70C82BD92BD06AC7CFED
:101DA000803842E59407C8F5803652E5950708F07B
:101DB00067C0C03482E5D807B0F08C2F8695869531
:101DC000877020E2829FC0011124C37021E030E0BF
:101DD000A90102C0440F551FCA95E2F7EA01C82BBA
:101DE000D92BDC68A4CFC03252E5D50708F041C03A
:101DF0008C2F8695869520E2829FC0011124C370A6
:101E000021E030E0A90102C0440F551FCA95E2F756
:101E1000EA01C82BD92BDD688ACF803C52E59507B3
:101E200060F48F71C03AD24508F03FC090E0982F1F
:101E30008827EC01C46FD06A7ACF805C9245809786
:101E400008F07FCFDC2FCC27CC27DF71C06FD06AA2
:101E50006ECFA497D0646BCFC85AD0E0CC0FDD1FF3
:101E6000CA5ADE4F0990D881C02DD46460CFD065A6
:101E70005ECFCF71D0E0DC2FCC27C16FD06A57CFB7
:101E800086958695877020E2829FC0011124C370D9
:101E900021E030E0A90102C0440F551FCA95E2F7C6
:101EA000EA01C82BD92BDA6842CF0E944010C82F14
:101EB000D0E0DC2FCC27CC27DF71D06238CF8F71F8
:101EC0000E94401065E0D695C7956A95E1F7CF70FE
:101ED000D0E0DC2FCC27282F30E084FF05C054E071
:101EE000220F331F5A95E1F7C22BD32BD0691FCF96
:101EF0008D2F8F710E944010182FCE0199270E94BC
:101F00009C0F212F30E0322F222722273F71282BD0
:101F1000392BE901D2CF462F672F763028F4413193
:101F200018F40E94B513089580E090E008950E948F
:101F30008B0F0E94720E0895803E9105D1F1C8F476
:101F40008133910509F47FC048F48932910509F481
:101F50006FC08A32910509F47DC0089589339105D7
:101F6000E1F082389105C9F08533910509F45BC031
:101F70000895843E9105D1F148F4823E910531F1F6
:101F8000833E910541F181EE90E00895863E9105F2
:101F9000C1F1873E9105E1F108952091C6022370B9
:101FA000211165C02091C70223FF14C089E290E08F
:101FB00008952091C60220FD43C03091C70230FF32
:101FC00009C024FF4EC080E090E008952091C60231
:101FD00022FDF7CF08952091C60222FD45C0309121
:101FE000C70230FD44C024FFF5CFEDCF2091C702DA
:101FF00021FFF0CF8091C60284FDE5CF87EE90E00F
:1020000008952091C60223FFE5CF24FDDCCFF6CF53
:102010002091C60223FD2EC03091C70231FFE3CFCD
:1020200084EE90E008952091C60225FFD3CFBECF65
:102030002091C60225FD21C02091C70223FFCACFEF
:1020400089E390E008952091C60226FFC3CF8AE27B
:1020500090E008952091C60226FFBCCF81E390E076
:10206000089583EE90E0089582EE90E0089580EE6A
:1020700090E0089586EE90E0089585E390E0AACF81
:102080009091C60292FF10C041E0282F24712430A5
:1020900009F040E031E0282F2871283009F030E0C5
:1020A000431711F02CE0822793FF10C041E0282F46
:1020B0002471243109F040E031E0282F28712831C3
:1020C00009F030E0431711F02CE082273091C7026D
:1020D00030FF10C051E0282F2171213009F050E06D
:1020E00041E0282F2871283009F040E0541711F002
:1020F00029E0822731FF10C041E0282F21712131D2
:1021000009F040E031E0282F2871283109F030E053
:10211000431711F029E0822794FD877E089580E01F
:10212000089508950E949110089508950E949510B1
:102130000895A4E0B0E0EFE9F0E10C942B2694E0E0
:10214000899FF0011124E052FD4F80819181A2818D
:10215000B381BC01CD012496E2E00C94472608959A
:1021600080EA8A95F1F7089500C008950E94B010A2
:102170000895F894E82FE295EF70F0E041A18F7098
:1021800021E030E0B90102C0660F771F8A95E2F7BF
:10219000CB01962F9095942391A392A1892B82A392
:1021A000789408950F931F93CF93DF93CDE9D1E0F7
:1021B00089918F3F11F00E94B91081E0C33AD8078E
:1021C000B9F7CCE8D1E00DE911E089918F3F11F02A
:1021D0000E94B9100C171D07C1F7DF91CF911F9115
:1021E0000F9108958F929F92AF92BF92DF92EF92DC
:1021F000FF920F931F93CF93DF93EC01D62E062F00
:1022000010E0C80183569E4F7C01FC0120812F3FC6
:1022100009F45FC0F894E22FE295EF70F0E031A18D
:102220002F7081E090E001C0880F2A95EAF7932F84
:10223000982B91A392A18095892382A378940E94E0
:10224000B410ECE8F1E041E050E060E070E0812C97
:10225000912C540181918F3F91F0A82FA295AF70DE
:10226000A05EB0E02C9130E08F7002C035952795CC
:102270008A95E2F72170DB01CA01222321F080E078
:1022800090E0A0E0B0E0882A992AAA2ABB2A440F4D
:10229000551F661F771F81E0ED39F807D9F6F70162
:1022A00080818F3F11F00E94B91061E08114910488
:1022B000A104B10409F460E08D2D0E94B610000F56
:1022C000111F000F111FC00FD11F88829982AA828F
:1022D000BB82DF91CF911F910F91FF90EF90DF9024
:1022E000BF90AF909F908F9008950E94D21088E188
:1022F000E0EEF2E0DF01982F1D929A95E9F7E8EC05
:10230000F2E0DF011D928A95E9F786E00E94C8118C
:102310000E9492100895A8E1B0E0E1E9F1E10C9487
:102320002826FE01319688E1DF011D928A95E9F7A2
:1023300010E0FE2E0F2F612F8F2D902F0E94F21094
:102340001F5F1630C1F748E150E06F2D702F88EC09
:1023500092E00E94912721E0892B81F420E046E061
:1023600060EE72E088EC92E00E94DD11182F0E946E
:102370009610812F6896E5E00C94442688E1EF2DB5
:10238000F02FA8ECB2E001900D928A95E1F7E7CF2B
:10239000CF93DF9391E1899FE0011124CE010E9448
:1023A00066268093A1029093A202AE0160E070E0E5
:1023B0000E949E27DF91CF910895AAE0B0E0E3EE5E
:1023C000F1E10C941B267C016B014D832983109253
:1023D0009C0210919E02112309F44AC00E94511ED2
:1023E0009C0180919F029091A002A901481B590B6A
:1023F0003093A00220939F024F3F510509F0E0F473
:102400004115510509F441C010929E0210929D029F
:102410002091A1025091A20280E030E090E07D8006
:1024200079120DC080939D0230939E0279807110C5
:1024300031C081112FC023C04FEF50E0E5CFE22F14
:10244000F52FBF016F5E7F4F2191222331F0DF0115
:102450001197421748F01C92812F6E177F07A1F742
:10246000262F572F9F5FDBCF241B2C93312FF5CFC7
:10247000798071102EC080919D0281112AC08091B7
:102480009C022A96E2E10C943726798080919D0285
:10249000772079F210929D022090A1023090A20242
:1024A00020919E022B8340919C024C838601E982FD
:1024B000FA821E82812C912C540183947D80CE80DF
:1024C0007C100EC0DC80D0929C02EB80E0929E02D9
:1024D000D6CF0E94511E9093A00280939F02DACF24
:1024E000E981FA814191519161917191FA83E98376
:1024F000F80180819181A281B3816A017B01C826A4
:10250000D926EA26FB26CF82D886E986FA86F1010B
:1025100020E030E075016401022E04C0CC0CDD1C0B
:10252000EE1CFF1C0A94D2F74F80588469847A8489
:102530004C205D206E207F20411451046104710401
:1025400069F0708071100AC042E340838C259D259C
:10255000AE25BF2561E06C8341E04B8331962F5F50
:102560003F4F21313105B1F661E1260E311CF801F2
:1025700081939193A193B1938F01FE81FF5FFE83BD
:102580009DCF0E9454200E94CB0D0E94612008958F
:102590000E9466200E94D80D0E94802008950E940B
:1025A000EA1D0E943A200E94980D0E94C1120E94CA
:1025B000C8120E94AB0DFBCF9093B3018093B20180
:1025C00008950E94A60C089580E00E949910862F1D
:1025D000817008950E948B112FEF81EE94E02150BD
:1025E00080409040E1F700C000000E948B110E94E3
:1025F000E412882321F00E94E1120E94AD1E08958A
:102600000E94EA12089582E0089550E0440F551F99
:1026100092E2699F400D511D11249CEC899F400D51
:10262000511D1124CA01899608950F931F93CF93CA
:10263000DF938230C8F46630B8F44131A8F40E94C8
:1026400005138C010E94A527C82FD0E0DC2FCC27D2
:10265000C80101960E94A5279E01282BC901DF9180
:10266000CF911F910F91089580E090E0F8CF0F93E4
:102670001F93CF93DF93122F032F823078F46630AD
:1026800068F4413158F40E940513EC01602F0E9458
:10269000C327612FCE0101960E94C327DF91CF91FE
:1026A0001F910F9108951F93CF93DF9310E0C0E027
:1026B00011C04D2F6C2F812F0E9494029C014D2F31
:1026C0006C2F812F0E943713DF5FD13191F7CF5FDD
:1026D000C63011F0D0E0EDCF111102C011E0E7CF0C
:1026E000DF91CF911F910895EF92FF920F931F9367
:1026F000CF93DF938C01EA017A01E60EF71ECE1527
:10270000DF0529F4CDB7DEB7E6E00C94432608399F
:1027100081E0180740F4C80189960E94A527899393
:102720000F5F1F4FECCF80E0FACFEF92FF920F9335
:102730001F93CF93DF938C01EA017A01E60EF71E17
:10274000CE15DF0529F4CDB7DEB7E6E00C944326BD
:10275000083981E0180728F46881C80189960E9429
:10276000C32721960F5F1F4FEBCF823038F46630BE
:1027700028F4413118F40E941513089580E090E088
:10278000089580E108958FE392E00895EF92FF921B
:102790000F931F93CF93DF938C01EA017A01E60E2A
:1027A000F71ECE15DF0529F4CDB7DEB7E6E00C94B1
:1027B00043260F3382E0180748F4C8018F539E4F19
:1027C0000E94A52789930F5F1F4FEBCF80E0FACFC0
:1027D000EF92FF920F931F93CF93DF938C01EA0147
:1027E0007A01E60EF71ECE15DF0529F4CDB7DEB768
:1027F000E6E00C9443260F3382E0180730F468813A
:10280000C8018F539E4F0E94C32721960F5F1F4F11
:10281000EACFCF93DF93C1ECD1E060E0CE010E941C
:10282000C3272196C11584E0D807B9F7DF91CF916E
:102830000895A8E0B0E0EFE1F4E10C942526F82E2D
:102840002FE0281708F46FC08FEF93E00E94A527B0
:10285000811169C001EC11E0F11038C01A821982AF
:10286000FE01339686E0DF011D928A95E9F7680143
:10287000BFEFCB1ADB0AC8010E94A52789831A8201
:10288000882309F450C08130D1F4780122E0E20EAF
:10289000F11CC6010E94A5278A83882309F443C03E
:1028A0009FEF980F9330F8F4680183E0C80ED11CB5
:1028B000C7010E94A5278B838823A9F11C8260E0B1
:1028C000CE0101960E94D8188601D1CF011584E06F
:1028D000180749F1C8010E94A5270F5F1F4F8111FA
:1028E000F5CFFA94B9CF8430B9F402E010E0C70113
:1028F000AFEFEA1AFA0A0E94A527E1E0F0E0EC0F38
:10290000FD1FE00FF11F8083882369F08C3731F4BD
:10291000FE01E00FF11F12826701D1CF0F5F1F4F41
:102920000730110521F72896E8E00C944126CF9353
:10293000DF93EB0186319C4719F50E947D0B9D8149
:102940009923A1F08A7A91E0811101C090E09093DF
:10295000A302882349F085E30E942F1D0E94370CB3
:1029600080E0DF91CF91089589E2F6CF8091A302B4
:10297000882321F085E30E94461DF0CF89E2FBCF3A
:1029800081E0EFCFCF93DF93EC01FB0185818823BA
:1029900009F4D2C09E0130572332310508F0B2C08D
:1029A0000E94C30C9093C7028093C602FE01E150BF
:1029B000F047E232F10520F4EB5FF74D0C940E2660
:1029C0008091C60281608093C60293C08091C70245
:1029D00088608093C7028DC08091C6028260F3CF69
:1029E0008091C6028460EFCF8091C6028860EBCFF1
:1029F0008091C7028160EDCF8091C7028260E9CFEC
:102A00008091C6028061DFCF8091C6028062DBCFF9
:102A10008091C6028064D7CF0E9419078091C602B8
:102A20008068D1CF8091C6028C60CDCF8091C702E3
:102A30008360CFCF8091C6028E7FC5CF8091C702C1
:102A4000877FC7CF8091C6028D7FBDCF8091C602A0
:102A50008B7FB9CF8091C602877FB5CF8091C702A7
:102A60008E7FB7CF8091C7028D7FB3CF8091C60292
:102A70008F7EA9CF8091C6028F7DA5CF8091C6029F
:102A80008F7BA1CF0E9419078091C6028F779BCFC1
:102A90008091C602837F97CF8091C7028C7F99CFA8
:102AA0008091C60282FB992790F921E0922790FB42
:102AB00082F990FB83F987CF8091C702982F909578
:102AC00091708E7F892B90FB81F983CF9091C60204
:102AD000892F8F7B96FF806476CF0E941907909193
:102AE000C602892F97FB87F980586DCF81E00E943D
:102AF000530D8091C6029091C7020E94C80C0E949B
:102B0000190780E0DF91CF91089580E0F0CF909198
:102B1000C602892F8F7E94FF806155CF9091C602A7
:102B2000892F8E7F90FF81604ECF9091C702892FB1
:102B3000877F93FF88604DCF81E0E4CF282F35EB6E
:102B40002303C001112497FF04C080589109892FE5
:102B5000089580589F4FFBCF8091AA0280FF0DC03F
:102B600060910F0170E0660F771F60387105C0F546
:102B700061157105B9F1862F089581FF07C0609135
:102B80000F0184E0689FB0011124EFCF82FF04C0E1
:102B900060910F0188E0F6CF8091A9028823E9F0C7
:102BA00090910E0160910F0170E0891730F093E071
:102BB000660F771F9A95E1F7D8CF869F9001879F80
:102BC000300D112483E0220F331F8A95E1F7692F1E
:102BD00070E0C9010E94FA25C8CF68E070E0CBCF51
:102BE0008FE7089581E008958091AA0280FF0CC0CC
:102BF00060910B0170E07595679575956795611506
:102C0000710561F1862F089581FF06C060910B0167
:102C100070E075956795F3CF60910B0170E082FDD0
:102C200015C02091A8022223B1F090910A01609171
:102C30000B0170E0291750F4269FA001279F500D2B
:102C40001124692F70E0CA010E94FA2560387105CD
:102C5000B0F28FE7089561E070E0D4CF81E008958D
:102C60009091AD022091AE02922B2091B002922B56
:102C70002091AF02922B992331F098E09093A90212
:102C800091E09093A8028D3C31F40E94AC1581959F
:102C90008093AE020895E2E3E80FE231B0F5F0E090
:102CA000E95DF74D0C940E260E94AC15F1CF0E9401
:102CB000AC1581958093AD0208950E94AC15FACFB2
:102CC0000E94F4158093AF0208950E94F415819537
:102CD000F9CF0E94F41581958093B00208950E9467
:102CE000F415FACF815D990B21E030E001C0220F8D
:102CF0008A95EAF78091AC02822B8093AC0208950A
:102D00008091AA0281608093AA0208958091AA020C
:102D10008260F9CF8091AA028460F5CF4091AD0224
:102D20008D3C59F48091AE0287FF0DC01092AE0227
:102D3000442359F41092A90208C08E3C81F480917A
:102D4000AE0218169CF3442381F08091AF0290915B
:102D5000B002892B811159C01092A80208958F3CAE
:102D600041F447FFF0CF1092AD028091AE0288236C
:102D7000E0CF803D19F41416B4F3E5CF9091AF0283
:102D8000893D29F41916FCF61092AF02DCCF8A3D7A
:102D900019F497FFD8CFF8CF9091B0028B3D29F46A
:102DA00097FFD1CF1092B002CECF8C3D19F41916F7
:102DB000CCF3C9CF9FE2980F983090F4815D990BC6
:102DC00021E030E0B90102C0660F771F8A95E2F773
:102DD000CB0180959091AC0289238093AC02B3CF54
:102DE0008D3D31F48091AA028E7F8093AA02ABCFF1
:102DF0008E3D21F48091AA028D7FF7CF8F3D09F09F
:102E0000A2CF8091AA028B7FF0CF08950E94511E1D
:102E10002091AD023091AE02232B222321F080932A
:102E2000A6029093A7022091AF023091B002232B0B
:102E3000222321F08093A4029093A5028BEA92E0D2
:102E40000E94251C089586E0EBEAF2E0DF011D9266
:102E50008A95E9F71092A9021092A8021092AA028C
:102E60000895FC01828181110DC0838181110AC006
:102E70008481811107C081E09581911101C080E0BA
:102E80008170089581E0FCCFA6E0B0E0EAE4F7E1CC
:102E90000C94282686E0EBEAF2E09E012F5F3F4F7C
:102EA000D90101900D928A95E1F71092AD0210922E
:102EB000AE021092AF021092B0028B819C81892BDE
:102EC0008901882391F08091A6029091A7020E9427
:102ED0007A1E9C018091A9028823C9F140911001BA
:102EE00050E04217530708F43FC08D819E81892B23
:102EF000882399F08091A4029091A5020E947A1EE5
:102F00009C018091A802882309F467C040910C01BC
:102F100050E04217530708F46EC0B8018BEA92E004
:102F20000E94771D811105C08BEA92E00E94311743
:102F300081110E94061786E0F801ABEAB2E0019029
:102F40000D928A95E1F72696E5E00C94442640918F
:102F500011019AE0499FA00111244217530728F656
:102F60008F5F8093A90202C08F3FD1F7FB80FF20C3
:102F700059F00E94AC1591E01F140CF09FEF899F4F
:102F8000802D11248093AD02FC80FF2059F00E9417
:102F9000AC1591E01F140CF09FEF899F802D112438
:102FA0008093AE028091AD02882309F49ECFF09009
:102FB000AE02FF2009F499CF0E949E15811101C035
:102FC00081E08093AD028F2D0E949E15882319F019
:102FD0008093AE028ACF81E0FBCF40910D019AE051
:102FE000499FA00111244217530708F096CF8F5F25
:102FF0008093A80202C08F3FD1F7FD80FF2059F0D7
:103000000E94F41591E01F140CF09FEF899F802D12
:1030100011248093AF02FE80FF2059F00E94F41526
:1030200091E01F140CF09FEF899F802D1124809355
:10303000B0028091AF02882309F46FCFF090B00204
:10304000FF2009F46ACF0E949E15811101C081E022
:103050008093AF028F2D0E949E15882319F08093D4
:10306000B0025BCF81E0FBCFA0E0B0E0EAE3F8E1A3
:103070000C942426E82FF0E0EC5BFD4FB490282F51
:1030800026952695269530E0F901EC51FD4F0491E7
:10309000877010E0082E02C0159507950A94E2F794
:1030A00001701127F901EC52FD4FE490F12C082E2C
:1030B00002C0F594E7940A94E2F791E0E922FF2434
:1030C000F901EC53FD4FC491D0E002C0D595C795EE
:1030D0008A95E2F7C170DD27C62ED12C01151105A6
:1030E00049F5E114F10431F086EE0E942704C6018F
:1030F000009771F5B6018B2D0E94A204C6010097BE
:1031000079F5E114F104A1F50115110531F081EE15
:103110000E946F04C6010097C9F5CD2B31F08CE2F7
:103120000E94BA04C114D104C9F5CDB7DEB7E9E0F5
:103130000C94402681EE0E942704C601009789F274
:10314000EFE9FFE03197F1F700C000000197F6CFFB
:10315000EFE9FFE03197F1F700C000000197C8CF19
:10316000EFE9FFE03197F1F700C000000197C7CF0A
:1031700086EE0E946F04C601009731F2EFE9FFE08E
:103180003197F1F700C000000197F6CFEFE9FFE0BB
:103190003197F1F700C000000197BDCF8FE99FE0A4
:1031A0000197F1F700C0000091E0C91AD108BACF29
:1031B000EF92FF921F93CF93DF93EC01162F88813C
:1031C000882309F45AC0813009F053C089818130C5
:1031D00071F47E0182E0E80EF11C8A810E94BA043B
:1031E000E701812F90E00097E1F52196E8CF82304A
:1031F00041F47E01E2E0EE0EF11C8A810E94270478
:10320000EFCF833041F47E01F2E0EF0EF11C8A81B2
:103210000E946F04E5CF843011F02196E2CF2A811D
:10322000229680E090E06AE0AE014F5F5F4F20534E
:10323000330B2A30310550F0009799F2EFE9FFE0A7
:103240003197F1F700C000000197F6CF689FF001B9
:10325000699FF00D1124C9018E0F9F1F2981EA017A
:10326000E3CFEFE9FFE03197F1F700C000000197ED
:10327000BACF612F0E943418B8CFDF91CF911F9140
:10328000FF90EF9008950F931F93CF93DF93C42F78
:10329000D22FFC0185818823C9F04093B3020E949C
:1032A000511E9093B2028093B10280E28C0F88305D
:1032B00040F4C77081E001C0880FCA95EAF70E9408
:1032C000C304DF91CF911F910F9108951091B30224
:1032D00014133CC08091B1029091B2020E947A1EF8
:1032E000883C910598F5C0E2CD0F1D1741F180E2B1
:1032F000810F883040F4177081E001C0880F1A9563
:10330000EAF70E94CA04C83020F0802F0E94BA0455
:10331000D8CF91E08D2F877001C0990F8A95EAF779
:10332000892F0E94C304802F0E94BA04D77081E0C5
:1033300001C0880FDA95EAF70E94CA04C2CF802F35
:103340000E94BA04C83008F0BCCFF0CF80E28C0FE6
:10335000883008F0B6CFC77081E001C0880FCA95E9
:10336000EAF7EACF0F93FC01CB01E851FC47E730C5
:10337000F10590F5E75CF74D0C940E2606E221EE80
:1033800041EE6AE17CE70E94431980E00F910895C5
:1033900007E225EE45EE6BE17CE7F5CF06E221EE94
:1033A00040EE68E17CE7EFCF07E225EE44EE69E10D
:1033B0007CE7E9CF06E221EE42EE6CE17CE7E3CF69
:1033C00007E225EE46EE6DE17CE7DDCF08E221E085
:1033D00045EE6EE17CE7D7CFFB018581811110922C
:1033E000B30281E0D3CFCF93DF939C01FB0127375A
:1033F0008CE7380739F028373C47F1F081E0DF915E
:10340000CF9108958581882391F00E94251A0E940A
:1034100093070E942B1AD82F0E94281AC82F0E94A7
:10342000251A4D2F6C2F0E94BE0880E0E8CF0E9425
:10343000251A0E949F07EDCF8581882319F00E94ED
:10344000281AE5CF0E94281AF4CF8091140108951C
:1034500080911301089580911201089585E290E012
:103460000E94A527843289F486E290E00E94A52775
:10347000843059F487E290E00E94A52791E08530DE
:1034800009F090E0892F8170089580E0FCCF8823B7
:1034900081F064E285E290E00E94C32764E086E266
:1034A00090E00E94C32765E087E290E00E94C32776
:1034B00008956FEF85E290E00E94C3276FEF86E2E8
:1034C00090E00E94C3276FEFEFCF0895A4E0B0E033
:1034D000ECE6FAE10C942B2688E290E00E94A52706
:1034E000282F30E040E050E0CA01B9012496E2E024
:1034F0000C9447260895CF93C62F0E947A1A6C2FFA
:1035000088E290E00E94C327CF91089580E00E9456
:10351000471A60E070E0CB010E947B1A0E945313AF
:103520000E94091481E00E94471A08950E94651ABA
:103530000E94661A0E947A1A0E942E1A811102C0F5
:103540000E94861A089508959C01FB0185818823B5
:1035500051F0A90157574038510530F4822F0E948D
:10356000191480E0089581E008952FEFFC01208375
:1035700008950E94B51A089580E00895CF92DF92D1
:10358000FF920F931F93CF93DF93CDB7DEB72E97A4
:103590000FB6F894DEBF0FBECDBF8D839E83F62E8F
:1035A0008D819E810E94BC1A811115C0AD81BE81A2
:1035B000EC91E150E33140F5F0E0E05CF74D0C9424
:1035C0000E26ED81FE8111828CE082836F2D8D812C
:1035D0009E810E942F1F2E960FB6F894DEBF0FBE5D
:1035E000CDBFDF91CF911F910F91FF90DF90CF90D2
:1035F0000895AD81BE8111968C91833099F148F484
:10360000813081F08230E9F08FEFAD81BE818C9303
:10361000DDCF8430C9F7ED81FE81128213821482DE
:103620001582D4CF0E945D1E0E9414266F83788776
:1036300089879A87ED81FE81628373838483958372
:10364000C5CF0E94661A0E9414266B877C878D87DF
:103650009E87AD81BE8112966D937D938D939C93D1
:103660001597B4CFED81FE81028110E06F01B3E0C8
:10367000CB0ED11C063011050CF0A8CF802F0E9474
:103680009910D6018C9311967C93119712966C9396
:103690000F5F1F4FECCFED81FE818181823049F0B9
:1036A000853009F0B1CFED81FE8182810E94A31A9D
:1036B0008DCFAD81BE8112968D919D910D90BC9163
:1036C000A02D89839A83AB83BC83BC01CD010E946A
:1036D00014260E947B1A7ACFAD81BE8113964C913D
:1036E000139712966C91129711968C910E94151354
:1036F000982789279827ED81FE819583848366CF5B
:10370000AD81BE8114962D913C91159732272327C8
:10371000322713964C91139712966C91129711962B
:103720008C910E94371352CF0E9453134FCF6F2DAD
:103730008D819E810E94B91A49CF0E94C113ED81EB
:10374000FE81818343CF0E94C3139827892798273E
:10375000AD81BE8112969C938E93119737CFED81E8
:10376000FE81638170E081819281AF014C5F5F4F88
:103770009827892798270E94C61328CFAD81BE813C
:1037800013966C91139770E011968D919C911297FE
:10379000AD014C5F5F4F9827892798270E94E81357
:1037A00015CF0E94091412CF0E940313C8CFAD8118
:1037B000BE8113966C91139770E011968D919C9138
:1037C0001297AD014C5F5F4F9827892798270E9479
:1037D0007413FCCEED81FE81638170E08181928162
:1037E000AF014C5F5F4F9827892798270E94951358
:1037F000EDCE9093B9028093B8020895E091B8029B
:10380000F091B902309729F00190F081E02D0995EF
:10381000089580E00895E091B802F091B9023097E0
:1038200021F00280F381E02D09950895DC01E091FB
:10383000B802F091B902309739F086E08C93048099
:10384000F581E02DCD0109950895DC01E091B802E4
:10385000F091B902309739F082E08C930680F781BD
:10386000E02DCD0109950895A3E0B0E0EAE3FCE185
:103870000C942B269C018091B6029091B70282177E
:103880009307A1F03093B7022093B602E091B802FB
:10389000F091B902309751F083E089833B832A830A
:1038A0000084F185E02DCE01019609952396E2E092
:1038B0000C944726A3E0B0E0E0E6FCE10C942B2654
:1038C0009C018091B4029091B50282179307A1F0F8
:1038D0003093B5022093B402E091B802F091B9029E
:1038E000309751F084E089833B832A830084F185FB
:1038F000E02DCE01019609952396E2E00C9447262F
:1039000020910801309109012E5F3F4F80911F01E6
:103910008823A9F08091C60287FF11C0209106017B
:10392000309107012E5F3F4F9DE180E0F90140811A
:103930002F5F3F4F41118F5F9150C0F7089595E081
:10394000F4CF882321F190911F01992311F19091D7
:10395000C60297FF1EC0982F969596959695803F24
:10396000B0F4E0910601F0910701E90FF11D228109
:1039700030E0877041E050E0BA0102C0660F771F67
:103980008A95E2F72623372381E0232B91F480E008
:1039900008952091080130910901F9013296285FBC
:1039A0003F4F9191981721F0E217F307D1F7EFCF2E
:1039B00081E008959C01FC0132968FEF90E04191E7
:1039C000461751F08F3F19F4411101C0892F9F5FB5
:1039D0009630A9F78F3F09F40895280F311D87FD10
:1039E0003A95F901628308959C01FC013296285FA3
:1039F0003F4F8191861303C0DF0111971C92E2179C
:103A0000F307B9F70895FC01862F8695869586956C
:103A1000603F60F4E80FF11D677021E030E001C005
:103A2000220F6A95EAF78281822B82830895FC0136
:103A3000862F869586958695603F80F4E80FF11D68
:103A4000677081E090E09C0102C0220F331F6A95ED
:103A5000E2F7B90160958281682362830895682F37
:103A600080911F01882359F08091C60287FF07C00B
:103A700080910601909107010E94031D0895809195
:103A80000801909109010E94DA1C0895682F809125
:103A90001F01882359F08091C60287FF07C08091DB
:103AA0000601909107010E94171D08958091080159
:103AB000909109010E94F41C089580911F018823B0
:103AC00079F08091C60287FF0BC0E0910601F0916A
:103AD000070132968EE1DF011D928A95E9F708957C
:103AE000E0910801F0910901329686E0F4CFDC0103
:103AF000FB0111969C9111978181981322C0129617
:103B00008C911297882319F0928189131AC0139609
:103B10008C911397882319F09381891312C01596FD
:103B20008C911597882319F0958189130AC01496F2
:103B30009C91992321F081E02481291303C080E026
:103B400001C081E08170089508950E94A41D089528
:103B50008F5F8093BA020E94A51D089583E0809331
:103B6000BA020E94A51D08950E94A81D089581E033
:103B70008093BA020E94A51D08950E94B71D089562
:103B8000089508950E94C11D0895089508950E9402
:103B9000C01D0895A5E0B0E0E0EDFDE10C942B26FA
:103BA0000E94C51D0E948B110E94C61D1D828D8121
:103BB0000E949910672B682B692B51F48D818F5FC0
:103BC0008D838630A1F780E02596E2E00C944726AD
:103BD00081E0FACF85B7806885BF85B7806885BFEB
:103BE00008951F921FB61F9211248F939F93AF9336
:103BF000BF938091BB02811113C08091F802909114
:103C0000F902A091FA02B091FB024196A11DB11DEB
:103C10008093F8029093F902A093FA02B093FB020A
:103C2000BF91AF919F918F911F901FBE1F901895CC
:103C300080910003843031F10E949B031092BB02FB
:103C400088E190E020E40FB6F894A8958093600096
:103C50000FBE2093600083B7817F846083BF83B7EA
:103C6000816083BF7894889583B78E7F83BF0FB6BA
:103C7000F894A8958091600088618093600010920C
:103C800060000FBE08950E9419070E94A0030895C6
:103C900082E084BD93E095BD9AEF97BD80936E005E
:103CA00008952FB7F8948091F8029091F902A091AD
:103CB000FA02B091FB022FBF0895A4E0B0E0E3E662
:103CC000FEE10C942B268FB7F8942091F8023091E6
:103CD000F9024091FA025091FB0229833A834B8307
:103CE0005C838FBF69817A818B819C812496E2E01D
:103CF0000C9447269C014FB7F8948091F80290915C
:103D0000F902A091FA02B091FB024FBF821B930B04
:103D1000089578941F921FB61F9211248F939F933A
:103D2000AF93BF938091F8029091F902A091FA02AB
:103D3000B091FB020196A11DB11D8093F8029093F2
:103D4000F902A093FA02B093FB02BF91AF919F9149
:103D50008F911F901FBE1F90189581E08093E00007
:103D600080E28093D8001092C9008FE19EE4019711
:103D7000F1F700C0000087E090EBDC0180930D03B9
:103D800090930E03A0930F03B093100388E19CE07F
:103D90000FB6F894A895809360000FBE90936000D2
:103DA000FFCF88E19CE00FB6F894A895809360005F
:103DB0000FBE90936000FFCF8091C4020895282F1A
:103DC000CB01BA01309100033430E1F42F7020931D
:103DD000E9002FEF3091E80035FD07C035ED3A9549
:103DE000F1F7000021502111F5CF2091E80025FFC7
:103DF00009C040E050E00E9429218091E8008E77C0
:103E00008093E8000895BC0143E050E084E00E9404
:103E1000DF1E0895BC0146E050E084E00E94DF1EF2
:103E20000895BC0140E250E084E00E94DF1E089546
:103E3000CF93DF93D82FC92F48E050E0682F792F18
:103E400081E00E94DF1E88E0ED2FFC2FACEBB2E09A
:103E500001900D928A95E1F7DF91CF910895792F26
:103E6000603231F440E250E0682F82E00E94DF1EB1
:103E700008958091FF02811109C00E9400230E94D1
:103E80005D238091E20084608093E20008951092A7
:103E9000FF0208950E94B71D08956091FC0281E021
:103EA000611101C080E00E94AE1D08959091000351
:103EB00081E0943009F080E06091FC020E94B41D22
:103EC000089542E061EC81E00E947C2242E261ECD4
:103ED00084E00E947C2242E261EC82E00E947C222B
:103EE00042E260EC83E00E947C229091000381E03A
:103EF000943009F080E06091FC020E94A81D0895B2
:103F000080910203893089F148F4823009F4A1C01C
:103F1000833009F45BC0813041F008958A3009F4A0
:103F200088C08B3009F46DC0089580910103813AF7
:103F300009F04BC08091E800877F8093E800809172
:103F4000050390910603892B61F060E080E090E02A
:103F500070E00E94C7218091E8008B778093E80091
:103F6000089568E08CEB92E0F3CF809101038132F9
:103F700061F580910503909106038D7F892B29F5CA
:103F80008091E800877F8093E8008091E80082FFBD
:103F900018C09091F3008091F200029731F4809163
:103FA000F100813011F0863021F48091F10080938E
:103FB000C4028091E8008B778093E8000E94B022D1
:103FC00004C0809100038111E0CF08958091010326
:103FD000813AD9F78091050390910603892BA9F7BF
:103FE0008091E800877F8093E8008091E80080FF5F
:103FF000FCCF80911F018093F1008091E8008E77C3
:10400000DBCF80910103813201F78091050390910C
:104010000603892BD1F68091E800877F8093E80022
:104020000E94B0228091030380931F010E94190710
:10403000089580910103813241F68091E800877FE5
:104040008093E8000E94B022809104038093C5020F
:10405000089580910103813A09F0B7CF8091E8007B
:10406000877F8093E8008091E80080FFFCCF8091FB
:10407000C502C1CF84B7877F84BF0FB6F894A895D7
:1040800080916000886180936000109260000FBE94
:1040900080E890E00FB6F8948093610090936100FF
:1040A0000FBE0E94BD1D08950E9400230E945D2343
:1040B000E2EEF0E080818460808378940E94E025C5
:1040C000089585E191E00E94F91B08958091000315
:1040D000853031F480910003853019F00E94431E31
:1040E00008950E94181E8091FE02882399F30E9471
:1040F000CA1D882379F30E9413210E941907EACF71
:10410000A0E2B0E0E6E8F0E20C942B2680910003F8
:10411000843081F483E08093E9008091E80082FF9D
:1041200009C08091E80085FD09C08091E8008B7787
:104130008093E800A096E2E00C94472640E050E02F
:1041400060E270E0CE0101960E9478218091E80043
:104150008B778093E80060E2CE0101960E94BE1A40
:10416000E9CF9A0140910703509108030E94B920BA
:104170000895AC01CB01D901252F33272330310518
:1041800021F168F42130310509F443C022303105B2
:1041900009F444C080E090E020E030E024C0213207
:1041A000310551F122323105A9F78330910590F79D
:1041B000FC01EE0FFF1FEA55FE4F208131818D5526
:1041C0009E4FFC01808190E00EC0CA0199274130CA
:1041D00069F08230910569F0E6E2F3E0892BD1F6CF
:1041E000849190E09F012D933C930895EEE0F3E0DD
:1041F000F7CFE4EFF2E0F4CF8330910558F6FC01FD
:10420000EE0FFF1FE455FE4F2081318189E090E0E1
:10421000EACF82E190E025E833E0E5CF8BE590E05E
:104220002AE233E0E0CF80E189BD82E189BD09B4B3
:1042300000FEFDCF8091D8008F7D8093D8008091C3
:10424000E00082608093E0008091E00081FDFCCF7F
:104250000895AF92BF92CF92DF92FF920F931F9378
:10426000CF93DF936C01EB018A010E94CF22F82EDD
:10427000811123C00115110539F0F8018081918168
:10428000C81BD90BC80ED91EA12CB12C2097A9F0A0
:104290008091E80085FD22C08091E8008E778093B0
:1042A000E80001151105A1F0F801808191818A0DC6
:1042B0009B1D9183808385E0F82E8F2DDF91CF9118
:1042C0001F910F91FF90DF90CF90BF90AF90089516
:1042D0000E94CF228823E1F2F82EEFCFF6018191E0
:1042E0006F018093F1002197FFEFAF1ABF0ACECF85
:1042F000AF92BF92CF92DF92FF920F931F93CF9313
:10430000DF936C01EB018A010E94CF22F82E81110C
:1043100023C00115110539F0F80180819181C81B76
:10432000D90BC80ED91EA12CB12C2097A9F08091D1
:10433000E80085FD22C08091E8008B778093E8003B
:1043400001151105A1F0F801808191818A0D9B1D55
:104350009183808385E0F82E8F2DDF91CF911F917F
:104360000F91FF90DF90CF90BF90AF9008950E9483
:10437000CF228823E1F2F82EEFCF8091F100F601F1
:1043800081936F012197FFEFAF1ABF0ACECFFC01D7
:104390009B0180910703909108038617970718F0F7
:1043A000672B61F0C90140E0009771F441110CC026
:1043B0008091E80082FF35C080E008958091E80098
:1043C0008E778093E800EECF209100032223A9F19D
:1043D0002530A9F12091E80023FD2DC02091E800AF
:1043E00022FDE6CF2091E80020FFDECF3091F300E0
:1043F0002091F200009719F02830310558F041E083
:104400002830310509F040E02091E8002E77209314
:10441000E800CACF41914093F10001972F5F3F4FD1
:10442000E9CF80910003882341F0853041F08091ED
:10443000E80083FFBDCF81E0089582E0089583E026
:104440000895FC019B018091070390910803861752
:10445000970718F0672B61F0C90140E0009771F4ED
:1044600041110CC08091E80082FF36C080E00895C1
:104470008091E8008E778093E800EECF20910003D2
:104480002223B1F12530B1F12091E80023FD2EC0A7
:104490002091E80022FDE6CF2091E80020FFDECF4A
:1044A0003091F3002091F200009719F02830310587
:1044B00058F041E02830310509F040E02091E80053
:1044C0002E772093E800CACF44914093F1003196B3
:1044D00001972F5F3F4FE8CF80910003882341F081
:1044E000853041F08091E80083FFBCCF81E00895E2
:1044F00082E0089583E00895982F973028F08F7018
:104500008093E90081E008959093E900242F762FAD
:1045100050E0981731F07091EC002091ED0050912F
:10452000F00021FD02C09F5FE8CF3091EB003E7F9D
:104530003093EB003091ED003D7F3093ED003091F2
:10454000EB0031603093EB007093EC002093ED00B2
:104550005093F0002091EE0027FDE5CF80E0089514
:104560008091010387FF13C08091E80082FF06C09D
:104570008091E8008B778093E80004C0809100036D
:104580008111F2CF0895809100038823D9F380919F
:10459000E80080FFF8CF8091E8008E77ECCF209183
:1045A000E4003091E50095E6A9018091EC0081706E
:1045B000882331F08091E80080FF06C080E00895F4
:1045C0002091E80022FD1BC080910003882391F018
:1045D000853091F08091EB0085FD10C02091E400C2
:1045E0003091E5004217530701F391509111DCCF50
:1045F00084E0089582E0089583E0089581E00895BD
:104600000E946F230E947723E0EEF0E080818160BA
:104610008083E8EDF0E080818F77808319BCA7ED7F
:10462000B0E08C918E7F8C9380818F7E80831092FE
:10463000FF0208950F931F93CF93DF930E946F2380
:104640000E947723C8EDD0E088818F7788838881A6
:104650008068888388818F7D888319BC10920003CD
:104660001092FC021092FE021092FD0200EE10E089
:10467000F80180818B7F808388818160888342E01C
:1046800060E080E00E947C22E1EEF0E080818E7F9D
:104690008083E2EEF0E080818160808380818860A9
:1046A0008083F80180818E7F808388818061888308
:1046B000DF91CF911F910F910895E8EDF0E0808197
:1046C0008F7E8083E7EDF0E080818160808384E0ED
:1046D00082BF81E08093FF020E941A230895E8EDD3
:1046E000F0E080818E7F80831092E2000895109226
:1046F000DA001092E10008951F920F920FB60F9208
:1047000011242F933F934F935F936F937F938F93D6
:104710009F93AF93BF93EF93FF938091E10082FF4C
:104720000BC08091E20082FF07C08091E1008B7F87
:104730008093E1000E94DF258091DA0080FF19C09C
:104740008091D80080FF15C08091DA008E7F809321
:10475000DA008091D90080FF94C080E189BD82E1B8
:1047600089BD09B400FEFDCF81E0809300030E9463
:10477000391F8091E10080FF19C08091E20080FF25
:1047800015C08091E2008E7F8093E2008091E2006C
:1047900080618093E2008091D80080628093D8008D
:1047A00019BC85E0809300030E944D1F8091E100B9
:1047B00084FF29C08091E20084FF25C080E189BD8B
:1047C00082E189BD09B400FEFDCF8091D8008F7DC4
:1047D0008093D8008091E1008F7E8093E1008091EA
:1047E000E2008F7E8093E2008091E20081608093FE
:1047F000E2008091FC02882309F449C084E08093A0
:1048000000030E94561F8091E10083FF29C0809120
:10481000E20083FF25C08091E100877F8093E10063
:1048200082E0809300031092FC028091E1008E7F71
:104830008093E1008091E2008E7F8093E20080917E
:10484000E20080618093E20042E060E080E00E944C
:104850007C228091F00088608093F0000E944A1FC3
:10486000FF91EF91BF91AF919F918F917F916F9148
:104870005F914F913F912F910F900FBE0F901F901E
:10488000189519BC109200030E94471F72CF8091A7
:10489000E30087FF02C083E0B2CF81E0B0CF1F9278
:1048A0000F920FB60F921124FF920F931F932F9325
:1048B0003F934F935F936F937F938F939F93AF93A8
:1048C000BF93CF93DF93EF93FF9309EE10E0F801CE
:1048D0008081C091EC00C795CC27C7958F70FC2EC6
:1048E000F82A1082C0EFD0E08881877F888378948F
:1048F0000E949824F8011082888188608883CF2DD7
:10490000CF70C083FF91EF91DF91CF91BF91AF91B5
:104910009F918F917F916F915F914F913F912F91D7
:104920001F910F91FF900F900FBE0F901F90189541
:10493000AAE2B0E0EEE9F4E20C942A2681E093E0EA
:10494000FC0101962091F100208323E08930920739
:10495000B9F70E94801F8091E80083FF38C08091E2
:104960000103909102039A3090F5E92FF0E0ED5A9F
:10497000F74D0C940E26803889F0823841F58091ED
:1049800005038F70873018F58093E9008091EB0064
:1049900085FB882780F91092E90006C08091FD020E
:1049A0009091FE02911182609091E800977F909320
:1049B000E8008093F1001092F1008091E8008E777A
:1049C00023C0811116C080910303813011F18091C1
:1049D000E80083FF0AC08091E800877F8093E800A9
:1049E0008091EB0080628093EB00AA96E3E00C9448
:1049F0004626823061F780910303882389F0109264
:104A0000E9008091E800877F8093E8000E94B0224F
:104A1000DECF81E0933009F080E08093FE02EFCF9B
:104A2000809105038F702FEF280F263080F680933A
:104A3000E9002091EB0020FFE2CF933031F4809128
:104A4000EB0080628093EB00DACF9091EB009061F5
:104A50009093EB0021E030E0A90102C0440F551F04
:104A60008A95E2F74093EA001092EA008091EB0009
:104A70008860E8CF8111ABCF109103031F7780913D
:104A8000E3008078812B8093E3008091E800877FAA
:104A90008093E8000E94B0228091E80080FFFCCF64
:104AA0008091E30080688093E30083E0111101C0EE
:104AB00082E0809300038BCF8058823008F087CF4C
:104AC00080910303909104038C3D53E0950799F581
:104AD00083E08A838AE289834FB7F894DE011396D4
:104AE00020E03EE051E2E32FF0E050935700849144
:104AF00020FF03C082958F703F5F8F708A30C8F0AF
:104B0000895C90E08D939D932F5F243161F74FBFB7
:104B10008091E800877F8093E8006AE270E0CE0130
:104B200001960E94C7218091E8008B778093E8006E
:104B30004ECF805DE6CF6091050370910603AE0114
:104B40004F5F5F4F0E94B120BC01892B09F43FCF1A
:104B50008091E800877F8093E80089819A810E9494
:104B60002122E1CF803809F032CF8091E800877FA1
:104B70008093E8008091FC028093F1001ECF8111A8
:104B800026CF90910303923008F021CF8091E80066
:104B9000877F8093E8009093FC020E94B02280916E
:104BA000FC02882331F084E0809300030E94611F9F
:104BB0000ECF8091E30087FDF6CF81E0F5CF089519
:104BC000CF9380910003882399F08091E900C091F0
:104BD000EC00C795CC27C7958F70C82B1092E900C1
:104BE0008091E80083FD0E949824CF70C093E90073
:104BF000CF91089597FB072E16F4009407D077FD08
:104C000009D00E94522607FC05D03EF4909581956C
:104C10009F4F0895709561957F4F0895EE0FFF1F88
:104C20000590F491E02D0994692796276927782744
:104C30008727782708952F923F924F925F926F9225
:104C40007F928F929F92AF92BF92CF92DF92EF921C
:104C5000FF920F931F93CF93DF93CDB7DEB7CA1B9D
:104C6000DB0B0FB6F894DEBF0FBECDBF09942A88C8
:104C7000398848885F846E847D848C849B84AA8470
:104C8000B984C884DF80EE80FD800C811B81AA81FD
:104C9000B981CE0FD11D0FB6F894DEBF0FBECDBFC8
:104CA000ED010895AA1BBB1B51E107C0AA1FBB1F42
:104CB000A617B70710F0A61BB70B881F991F5A95A8
:104CC000A9F780959095BC01CD0108950F931F938E
:104CD000CF93DF938230910510F482E090E0E09171
:104CE0000B03F0910C0330E020E0B0E0A0E030973F
:104CF00099F42115310509F447C0281B390B2430DC
:104D00003105C0F58A819B816115710571F1FB0147
:104D100093838283FE0111C04081518102811381FE
:104D200048175907F8F04817590799F4109761F098
:104D300012960C93129713961C933296CF01DF9123
:104D4000CF911F910F91089500930B0310930C03C3
:104D5000F4CF2115310519F04217530718F49A01C1
:104D6000BD01EF01DF01F801C2CF90930C038093E6
:104D70000B03D0CFFE01E20FF31F819391932250DA
:104D8000310939832883DACF2091090330910A034E
:104D9000232B41F4209102013091030130930A0347
:104DA0002093090320910001309101012115310563
:104DB00041F42DB73EB74091040150910501241BE9
:104DC000350B4091090350910A034217530708F02D
:104DD000B5CF241B350B2817390708F4AFCFBC011A
:104DE0006E5F7F4F2617370708F4A8CF640F751F33
:104DF00070930A0360930903FA01819391939ECF04
:104E0000CF93DF930097E9F0FC013297138212826F
:104E1000C0910B03D0910C03DE0130E020E020971D
:104E2000A1F420813181820F931F209109033091D9
:104E30000A032817390709F067C0F0930A03E093C3
:104E40000903DF91CF910895DA01AE17BF0708F08B
:104E500040C012964D915C9113979D0141155105EB
:104E600099F7D9011396FC93EE9312974D915D91AA
:104E7000A40FB51FEA17FB0779F480819181029690
:104E8000840F951FD90111969C938E9382819381F3
:104E900013969C938E931297B0E0A0E08A819B8139
:104EA0000097B9F5FE0181919191E80FF91F80916A
:104EB000090390910A038E179F0719F6109761F561
:104EC00010920C0310920B03D0930A03C0930903B2
:104ED000B8CFB383A28340815181840F951FA81757
:104EE000B90771F44E5F5F4F8D919C911197480FF8
:104EF000591F5183408312968D919C919383828395
:104F00002115310509F0ADCFF0930C03E0930B03AD
:104F100098CFDE01EC01C2CF13961C921E9212971D
:104F2000D3CFFB01DC0104C08D910190801921F4E5
:104F300041505040C8F7881B990B0895DC0101C00F
:104F40006D9341505040E0F70895F999FECF92BD1E
:104F500081BDF89A992780B50895A8E1B0E042E0B4
:104F600050E00C94E927DC01A40FB51F41505040DC
:104F700048F0CB01840F951F2E910E94C427415009
:104F80005040D0F70895262FF999FECF92BD81BDEC
:104F9000F89A019700B4021639F01FBA20BD0FB677
:104FA000F894FA9AF99A0FBE08950396272F0E9453
:104FB000C4270E94C327252F0E94C427242F0C94A6
:104FC000C4270196272F0E94C4270C94C327DC0115
:104FD000CB01FC01F999FECF06C0F2BDE1BDF89A04
:104FE000319600B40D9241505040B8F70895F894AE
:104FF000FFCF0F050F0556055605BB05D8053E0525
:105000003E05DD054A065B065B061A158E15221560
:10501000EC14F0142615F4142A153615001587150E
:1050200004153A1508153E1566150C1542156D1533
:10503000121548155015F8142E15FC1432151615B6
:105040004C155C1576158515E6141E159515541628
:1050500057165D1672167216721672167216721640
:10506000721672166016651669166F168016861609
:105070008A16CE19D419BE19C819DA19E019E61919
:10508000E11AF91A4B1B6C1B801B941B971B971B77
:10509000971B041B041B9D1BA31BAF1BBE1BD11B1B
:1050A000D41BD71BEA1BBB24E124E724E124E7241B
:0A50B0003A255C25E724B225BF2550
:1050BA000000110320004F026F02280850011E0A47
:1050CA001401030201DC1E181F111F0A1F031F010E
:1050DA00E200E900EA00B500B600B700CD0083019E
:1050EA00CC008A01920194012102230224022502A2
:1050FA00260227022A02B300B4006F0070009F0143
:10510A00CB019F02A002E200E900EA00B500B60066
:10511A00B700CD008301CC008A01920194012102DB
:10512A00230224022502260227022A02B300B4001F
:10513A006F0070009F01CB019F02A002333236F04C
:10514A00F16795373534C697669490919230F4F5A5
:10515A00F6F7314422B66F049703B9033C035503AB
:02516A007503CB
:00000001FF
